:020000040000fa
:080000000002040000000000f2
:020000040000fa
:100400002f8020000e7f24000e01880000000000d5
:100410000c000700c03e2000010020001100070072
:10042000000020000000e000020032000000020096
:100430000000000076030200000000000040da0027
:100440000000fe004440a900000020000000e00081
:100450000300320000002000a00188004440a800f2
:100460000000060091018800800078000000eb0089
:1004700015003700e280400032a0b4009101ba00bc
:10048000e280400032a0b4009102ba00e280400055
:1004900032a0b4000002eb00472bde00f507b200eb
:1004a000602ce10004003a000059eb008301e900f0
:1004b000fdff3e00040037006128e100010032002a
:1004c0000082eb00040007001101ba000200e00006
:1004d000e8ff3a00000006003159ba008301e90044
:1004e0000c0032002159ba008301e90008003200f3
:1004f0000400e00003003a00e280400032a0b400b3
:10050000f5ff370011d9ba008301e900faff3a007c
:100510008100e800e180400032a0b4000000060045
:080520000040da000000fe00bb
:020000040000fa
:0200000401f009
:04000c00f8ff0000f9
:020000040000fa
:0200000401f009
:040010007bff000072
:020000040000fa
:1000080090020000900200009002000090020000a0
:100018009002000090020000900200009002000090
:100028009002000090020000900200009002000080
:100038009002000090020000900200009002000070
:100048009002000090020000900200009002000060
:1000580090020000a8030000900200009002000037
:100068009002000090020000900200009002000040
:100078009002000090020000900200009002000030
:100088009002000090020000900200009002000020
:100098009002000090020000900200009002000010
:1000a8009002000090020000900200009002000000
:1000b80090020000900200009002000090020000f0
:1000c80090020000900200009002000090020000e0
:1000d80090020000900200009002000090020000d0
:1000e80090020000900200009002000090020000c0
:1000f80090020000900200009002000090020000b0
:10010800900200009002000090020000900200009f
:10011800900200009002000090020000900200008f
:10012800900200009002000090020000900200007f
:10013800900200009002000090020000900200006f
:10014800900200009002000090020000900200005f
:10015800900200009002000088030000980300004d
:10016800900200009002000090020000900200003f
:10017800900200009002000090020000900200002f
:10018800900200009002000090020000900200001f
:10019800900200009002000090020000900200000f
:1001a80090020000900200009002000090020000ff
:1001b80090020000900200009002000090020000ef
:1001c80090020000900200009002000090020000df
:1001d80090020000900200009002000090020000cf
:1001e80090020000900200009002000090020000bf
:0801f8009002000090020000db
:020000040000fa
:10020800900200009002000090020000900200009e
:10021800900200009002000090020000900200008e
:10022800900200009002000090020000900200007e
:10023800900200009002000090020000900200006e
:10024800900200009002000090020000900200005e
:1002580090020000a8030000900200009002000035
:10026800900200009002000090020000900200003e
:10027800900200009002000090020000900200002e
:10028800900200009002000090020000900200001e
:10029800900200009002000090020000900200000e
:1002a80090020000900200009002000090020000fe
:1002b80090020000900200009002000090020000ee
:1002c80090020000900200009002000090020000de
:1002d80090020000900200009002000090020000ce
:1002e80090020000900200009002000090020000be
:1002f80090020000900200009002000090020000ae
:10030800900200009002000090020000900200009d
:10031800900200009002000090020000900200008d
:10032800900200009002000090020000900200007d
:10033800900200009002000090020000900200006d
:10034800900200009002000090020000900200005d
:10035800900200009002000088030000980300004b
:10036800900200009002000090020000900200003d
:10037800900200009002000090020000900200002d
:10038800900200009002000090020000900200001d
:10039800900200009002000090020000900200000d
:1003a80090020000900200009002000090020000fd
:1003b80090020000900200009002000090020000ed
:1003c80090020000900200009002000090020000dd
:1003d80090020000900200009002000090020000cd
:1003e80090020000900200009002000090020000bd
:0803f8009002000090020000d9
:020000040000fa
:100528000000fa0040a7a90051742000914078000b
:10053800f0c8b30000c0600045e7b7005174200060
:100548009140780080cfb30000c0600045e7b70055
:10055800817420009140780000ccb30000c0600096
:1005680048e7b70090022000303a880044c7bf002f
:10057800f043b20044e7b70041742000914078008e
:1005880000ceb30000c0600044e7b70012002000ae
:1005980081072000a00920003374200081497800d9
:1005a8008049780082497800120020006104200008
:1005b8007005200023742000814978008049780064
:1005c8008249780043c7bf000047b200f04f50008f
:1005d800fcff3a0042c7bf000042b2000004e0003e
:1005e800fcff32004ba7a900b174200091407800ad
:1005f80070ceb30000c060004be7b7004ae7a9001f
:100608004bc7bf007040b3004be7b7000080fa004b
:10061800000006000000fa0021e3a90021a3a900b8
:100628002143a9001132200091407800c0cfb300c7
:1006380000c0600021e3b70001322000914078003b
:1006480000ceb30000c0700020e3b7002043a9002b
:100658002023a9000000eb001019880025e3a90059
:1006680010c0b30024e3b700213320009140780084
:1006780080cfb30000c0600032e3b70050502000c4
:10068800401988000000eb00801988000000eb008a
:100698006019880085a0a90095a0a80021e3a800fa
:1006a8000080fa00000006000200fa000000eb00db
:1006b800000f780021e3a8002023a80020c3bf0072
:1006c800614060000004e000fcff32000018800078
:1006d800000f780021e3a9001e0078000080fa00ce
:1006e800000006000000fa008dff07002d0007003b
:1006f80018000700c7ff0700ebff07004600dd00f2
:1007080000408800fcff3700801f78000000fa00d6
:100718008dc0a90000408000b01f88000080fa004a
:100728004f00780000400600801f78000000fa00a3
:100738008de0a90000408000c01f88000080fa00fa
:100748004f007800004006000000fa000080fa0020
:10075800004006000000fa00f3e3a800f2e3a80056
:10076800f243a900f343a9008dc0a9008de0a900b8
:100778009dc0a9009de0a900f183a900f103a9008b
:10078800013f20009140780000c8b30000c060001d
:100798000004a000f0e3b700f1e3a8000080fa002d
:1007a800000006000000fa00c9e2a900c9c2a900b9
:1007b800c9a2a900c982a90000002f00501688000c
:1007c800c862a8002ca3a9000080fa000000060057
:020000040000fa
:1007d8000008000002000000000000000000000007
:00000001FF
