:020000040000fa
:080000000002040000000000f2
:020000040000fa
:100400006f8620000e7f24000e018800000000008f
:100410000c000700e07d2000010020001100070013
:10042000000020000000e000020032000000020096
:100430000000000068070200000000000040da0031
:100440000000fe004440a900000020000000e00081
:100450000300320000002000a00188004440a800f2
:100460000000060091018800800078000000eb0089
:1004700015003700e280400032a0b4009101ba00bc
:10048000e280400032a0b4009102ba00e280400055
:1004900032a0b4000002eb00472bde00f507b200eb
:1004a000602ce10004003a000059eb008301e900f0
:1004b000fdff3e00040037006128e100010032002a
:1004c0000082eb00040007001101ba000200e00006
:1004d000e8ff3a00000006003159ba008301e90044
:1004e0000c0032002159ba008301e90008003200f3
:1004f0000400e00003003a00e280400032a0b400b3
:10050000f5ff370011d9ba008301e900faff3a007c
:100510008100e800e180400032a0b4000000060045
:100520000040da000000fe0003f0a200889fbe0039
:100530008a9fbe008c1f7800ec000700f300330098
:100540006450e1004f0032006420e10052003200ac
:1005500003826c0007003b000905d0000306d000b1
:10056000820f54000c065d000200390002003200c8
:1005700089017800030678008582550004003d005b
:100580000003fd008103fd008502ea008b85420027
:10059000840f720002003b0060001000e080180031
:1005a0006011b8000005eb007a28e1000a0039006c
:1005b00006007800c75ddd00f707b2008780750090
:1005c0002d003700828171000a017800610560000a
:1005d0008180d1000080d3008502e900f9ff3b0053
:1005e000060440008784480002003b0060041400b9
:1005f000e0841c000988a300070032008a81710092
:1006000082817100610164008904d1000884d300f3
:100610008b05e800170037000978a30013003a00a3
:100620000b00e000130034008b05e90008044400cf
:1006300089844c000a4474000978a3000d003a0034
:100640000b00e000070034008b05e90008044400bb
:1006500089844c0001003a000b0020000978a300b7
:10066000f7ff32000001eb000200370082817100c9
:100670000a017800770007000cf0a70001f0a00045
:10068000ab0037006420e10002003a00838f6c0069
:10069000ab0033000801be000200be00a40037001a
:1006a000889fbe008a9fbe008c1f78008f000700c5
:1006b0009600330003866c006450e1002e00320087
:1006c0006420e100330032006150e1002f0032006d
:1006d0006120e1003100320085855500eb07b00054
:1006e0000900200008042000050037000804440029
:1006f00089844c000a0031000603430087834b00c5
:100700000001530081815b00f8ff33000203be004b
:100710000800a0000804440089844c00f6ff39005a
:10072000c639dd0083017300010032001300200090
:100730008904d1000884d3000998a3000500320081
:100740000800a7000300a0008904d1000884d3009a
:100750008b05e8008904d1000884d3000001eb0078
:100760000281d2003b00070001f0a1000cf0a700bd
:1007700001f0a0006e0037006420e100700032003c
:100780000801be000200be00f7ff37006120e10053
:100790006b0032006000b800f3ff3700000020005b
:1007a00001f82700f0ff3700889fbe008a9fbe0037
:1007b000010578000100e0000400350008003c005d
:1007c0000000e0002000320005003700600010004b
:1007d000e080180002003b0001f02c001a003700f6
:1007e0000004be006011b8006b0920000982cf0030
:1007f000020039000882cf000441b0006942520073
:100800000e00320008003b0082817100610164002b
:100810008904d1000884d3008b05e8000442e80075
:10082000f9ff3a00050037000804440089844c00b1
:100830008b05e9000442e900fbff3a0005000700d0
:100840000af0a70001f0a0004f05be004f04be0053
:100850000000060081002000618055000b003d0073
:100860000b00200061fe2f000100e1001d0034009c
:1008700082817100610164008904d1000884d30081
:100880000000e800faff3a007100200061006400f7
:10089000030070000200600009003200610444009f
:1008a000e0844c000988a500050032008b05e800b3
:1008b0006808e10002003a008904d1000884d300ee
:1008c000f20f20000258e10005003d00c75ddd0089
:1008d000f907b20089807500080078000000060062
:1008e0000bf827008b007800000005000004be0014
:1008f0004a0007000003be000405be000200be005f
:1009000046000700844f7500000006000200be008c
:100910006450e100050036006420e100020036006a
:100920000968a30001003a000800be000160a000b1
:100930004f0678004f05be004f04be0000000600c1
:10094000f0ff2f00f1ff2700f9ff3700889fbe005e
:100950008a9fbe008c1f7800e4ff0700ebff330086
:1009600003866c006450e100240032006420e10042
:10097000270032006150e100220032006120e100d6
:10098000210032008b854200eb07b1000134b80032
:10099000003ab8000804420089844a00013ab800cd
:1009a0000030b8008880400009014a00040033008c
:1009b0000000400081804800020149008b05e900e9
:1009c000c909dd008301700001003200130020001e
:1009d000c814de004814dd004709de001200b20032
:1009e000c808de00088470009aff070001f0a1002b
:1009f0000cf0a70001f0a000cdff37006120e1005e
:100a0000cfff32000801be000200be00f7ff370032
:100a10006150e100fcff3a00c9ff3700c70ade0061
:100a2000f107b200f50fb20008003200e1cf42003a
:100a3000020032000170a00024000500810f700048
:100a4000010032000408050044000500810f700019
:100a500002003a00140005008502e9000000400091
:100a600081c04800fcff3b000170a000240005008d
:020000040000fa
:0200000401f009
:04000c00f8ff0000f9
:020000040000fa
:0200000401f009
:040010007bff000072
:020000040000fa
:1000080090020000900200009002000090020000a0
:100018009002000090020000900200009002000090
:100028009002000090020000900200009002000080
:100038009002000090020000900200009002000070
:100048009002000090020000900200009002000060
:10005800900200009a070000900200009002000041
:100068009002000090020000900200009002000040
:100078009002000090020000900200009002000030
:100088009002000090020000900200009002000020
:100098009002000090020000900200009002000010
:1000a8009002000090020000900200009002000000
:1000b80090020000900200009002000090020000f0
:1000c80090020000900200009002000090020000e0
:1000d80090020000900200009002000090020000d0
:1000e80090020000900200009002000090020000c0
:1000f80090020000900200009002000090020000b0
:10010800900200009002000090020000900200009f
:10011800900200009002000090020000900200008f
:10012800900200009002000090020000900200007f
:10013800900200009002000090020000900200006f
:10014800900200009002000090020000900200005f
:1001580090020000900200007a0700008a07000061
:10016800900200009002000090020000900200003f
:10017800900200009002000090020000900200002f
:10018800900200009002000090020000900200001f
:10019800900200009002000090020000900200000f
:1001a80090020000900200009002000090020000ff
:1001b80090020000900200009002000090020000ef
:1001c80090020000900200009002000090020000df
:1001d80090020000900200009002000090020000cf
:1001e80090020000900200009002000090020000bf
:0801f8009002000090020000db
:020000040000fa
:10020800900200009002000090020000900200009e
:10021800900200009002000090020000900200008e
:10022800900200009002000090020000900200007e
:10023800900200009002000090020000900200006e
:10024800900200009002000090020000900200005e
:10025800900200009a07000090020000900200003f
:10026800900200009002000090020000900200003e
:10027800900200009002000090020000900200002e
:10028800900200009002000090020000900200001e
:10029800900200009002000090020000900200000e
:1002a80090020000900200009002000090020000fe
:1002b80090020000900200009002000090020000ee
:1002c80090020000900200009002000090020000de
:1002d80090020000900200009002000090020000ce
:1002e80090020000900200009002000090020000be
:1002f80090020000900200009002000090020000ae
:10030800900200009002000090020000900200009d
:10031800900200009002000090020000900200008d
:10032800900200009002000090020000900200007d
:10033800900200009002000090020000900200006d
:10034800900200009002000090020000900200005d
:1003580090020000900200007a0700008a0700005f
:10036800900200009002000090020000900200003d
:10037800900200009002000090020000900200002d
:10038800900200009002000090020000900200001d
:10039800900200009002000090020000900200000d
:1003a80090020000900200009002000090020000fd
:1003b80090020000900200009002000090020000ed
:1003c80090020000900200009002000090020000dd
:1003d80090020000900200009002000090020000cd
:1003e80090020000900200009002000090020000bd
:0803f8009002000090020000d9
:020000040000fa
:100a70000600fa006000b800008fbe000000eb0026
:100a8000200798000e0037002e00900080004000e4
:100a9000208020000080400010007800cf80de0021
:100aa00041ff07000001be001e00be009ffe0700c0
:100ab000008fbe002e0090000000e8002007980084
:100ac000ae00900010032000808f5000eeff340035
:100ad0001e00be000080fa00000006000e00fa00b2
:100ae0006000b8003007980041079800104080006f
:100af000cf80de002cff0700100798002107980028
:100b000010002000000f78001c0037001e00780045
:100b1000800040002080200000804000100078000d
:100b2000cf80de0020ff0700500798006107980083
:100b30001e019000ae0190005e009000ee0090005b
:100b40007afe07000200200003002400d4fe070004
:100b50000001be003e009000ce00900073fe070032
:100b600030079800410798005e009000ee0090006a
:100b700010079800210798001e0fe80020032000ae
:100b80009e0f1000e1ff34003e009000ce00900068
:100b90000080fa00000006001400fa002003200084
:100ba000100f98006000b80070079800010f9800bf
:100bb00010408000cf80de00fbfe07005007980049
:100bc0006107980020408000cf80de00f6fe07001d
:100bd000300798004107980020002000000f78009f
:100be000280037001e007800800040002080200090
:100bf0000080400010007800cf80de00eafe070091
:100c00001007980021079800020020000308240024
:100c10003e009000ce0090004cff07005e01900067
:100c2000ee01900041fe07001e019000ae01900011
:100c30003efe07000001be007e0090008e0890007e
:100c40003afe070070079800010f98001e00900000
:100c5000ae00900050079800610798001e00e80061
:100c600080004000208020000080400010007800bc
:100c7000cf80de00ccfe07003007980041079800c7
:100c80001e8fe8001e0890000080e9009e0f5000b3
:100c9000d4ff3d001e00780080004000208020002e
:100ca0000080400010007800cf80de00befe07000c
:100cb0001007980021079800020020000308240074
:100cc0003e009000ce00900020ff07005e019000e3
:100cd000ee01900015fe07001e019000ae0190008d
:100ce00012fe07000001be007e0090008e089000fa
:100cf0000efe070070079800010f98007e0090001c
:100d00008e0890000080fa00000006000000fa0043
:100d100040a7a9005174200091407800f0c8b300aa
:100d200000c0600045e7b700517420009140780092
:100d300080cfb30000c0600045e7b7008174200099
:100d40009140780000ccb30000c0600048e7b700d5
:100d500090022000303a880044c7bf00f043b20040
:100d600044e7b700417420009140780000ceb30002
:100d700000c0600044e7b700120020008107200097
:100d8000a009200033742000814978008049780050
:100d900082497800120020006104200070052000c4
:100da00023742000814978008049780082497800c6
:100db00043c7bf000047b200f04f5000fcff3a00ad
:100dc00042c7bf000042b2000004e000fcff320056
:100dd0004ba7a900b17420009140780070ceb300f9
:100de00000c060004be7b7004ae7a9004bc7bf004f
:100df0007040b3004be7b7000080fa000000060027
:100e00000000fa0021e3a90021a3a9002143a900c1
:100e10001132200091407800c0cfb30000c06000c4
:100e200021e3b700013220009140780000ceb300ea
:100e300000c0700020e3b7002043a9002023a900d0
:100e40000000eb001019880025e3a90010c0b300d2
:100e500024e3b700213320009140780080cfb30015
:100e600000c0600032e3b7005050200040198800f5
:100e70000000eb00801988000000eb00601988007a
:100e800085a0a90095a0a80021e3a8000080fa0091
:100e9000000006000200fa000000eb00000f7800de
:100ea00021e3a8002023a80020c3bf006140600008
:100eb0000004e000fcff320000188000000f780002
:100ec00021e3a9001e0078000080fa00000006005f
:100ed0000000fa008dff07002d0007001800070032
:100ee000c7ff0700ebff07004600dd000040880059
:100ef000fcff3700801f78000000fa008dc0a900b9
:100f000000408000b01f88000080fa004f00780089
:100f100000400600801f78000000fa008de0a90064
:100f200000408000c01f88000080fa004f00780059
:100f3000004006000000fa000080fa0000400600b1
:100f40000000fa00f3e3a800f2e3a800f243a900ce
:100f5000f343a9008dc0a9008de0a9009dc0a900a0
:100f60009de0a900f183a900f103a900013f200041
:100f70009140780000c8b30000c060000004a000e9
:100f8000f0e3b700f1e3a8000080fa0000000600db
:100f90000000fa00c9e2a900c9c2a900c9a2a900bb
:100fa000c982a90000002f0050168800c862a8005e
:0c0fb0002ca3a9000080fa00000006003d
:020000040000fa
:100fbc0000080000660000000000000000000000b7
:00000001FF
